:020000041000EA
:1000000000B5324B212058609868022188439860DF
:10001000D860186158612E4B002199600221596106
:100020000121F02299502B49196001219960352056
:1000300000F044F80222904214D00621196600F024
:1000400034F8196E01211966002018661A6600F04E
:100050002CF8196E196E196E052000F02FF8012189
:100060000842F9D1002199601B49196000215960AB
:100070001A491B48016001219960EB211966A021F2
:10008000196600F012F800219960164914480160C1
:100090000121996001BC002800D000471248134993
:1000A000086003C880F30888084703B5996A0420EC
:1000B0000142FBD001200142F8D103BD02B5186610
:1000C0001866FFF7F2FF186E186E02BD00000240BE
:1000D000000000180000070000035F00212200005C
:1000E000F4000018222000A00001001008ED00E03C
:1000F00000000000000000000000000074B24E7A12
:1001000000200420F7010010C3010010C5010010F9
:10011000C1010010C1010010C1010010C101001097
:10012000C1010010C1010010C1010010C701001081
:10013000C1010010C1010010C9010010CB01001065
:10014000CD010010CD010010CD010010CD01001037
:10015000CD010010CD010010CD010010CD01001027
:10016000CD010010CD010010CD010010CD01001017
:10017000CD010010CD010010CD010010CD01001007
:10018000CD010010CD010010CD010010CD010010F7
:10019000CD010010CD010010CD010010CD010010E7
:1001A000CD010010CD010010CD010010CD010010D7
:1001B000CD010010CD010010CD010010CD010010C7
:1001C00000BE00BE00BE00BE00BE00BEEFF3058054
:1001D000103800BEF2EB8871E48400100C8500102A
:1001E0003802001090A31AE71E481F49086006C88D
:1001F00081F3088810471D480068002801D019487D
:10020000F3E70DA40ECC002902D000F012F8F9E7B4
:100210001749184A002000E001C19142FCD116495B
:100220008847164988471649884700BEFDE701C937
:1002300001C29A42FBD370470C850010C000002019
:10024000EC02002038870010000004200000042089
:100250003887001000100420001004200000000067
:10026000704700000000000008ED00E0000000D032
:10027000EC020020D00A022099370010050300107C
:1002800059370010F8B5C04606480749091A8B10BF
:10029000C90FC91810B5491003D0044B002B00D06A
:1002A000984710BDEC020020EC0200200000000086
:1002B000054B10B5002B03D00449054800E000BFF2
:1002C000FFF7E2FF10BDC04600000000B0040020B0
:1002D0001469001070B5192000F052F8D0231B06E5
:1002E000802292045A62FA267600300005F068FDFA
:1002F000D02424068025AD046561300005F060FD42
:10030000A561F0E700B583B003F066FB084803F091
:1003100068FB8022074908480023019301330093BA
:100320000023520005F07BFB05F0CCFB00F04CF8FD
:10033000186900104C690010D502001010B5014872
:1003400000F02AF850690010FEE7000010B58300A5
:10035000084A9A1814684022544080322240064CC1
:10036000A44663441A60C000044B9C46604441604C
:1003700010BDC04604C0014004D00140004001400F
:1003800010B501238340D0221206936293610521A8
:10039000FFF7DCFF10BD00000FB400B583B00848C4
:1003A00003F01FFB049B002B07D005A90191180047
:1003B00003F026FB034803F014FB012003F0CAF905
:1003C000606900107069001010B50148FFF7E4FF84
:1003D00074690010EFF3108072B6034B1B68002B9A
:1003E000FBD0BFF35F8F70472C0100D0BFF35F8F4E
:1003F000024B00221A6080F3108870472C0100D055
:10040000F8B506000C001500FFF7E4FFE308F71845
:10041000F15C07222240012393400B4205D1DBB25D
:100420000B433B70FFF7E2FFF8BD21002800FFF708
:10043000B3FF0000054A1078431CDBB21370172B82
:1004400002D9130010221A707047C04630020020F3
:1004500010B50100024A034B1800FFF7D1FF10BD91
:100460008469001078040020002307E0054A9A18E8
:100470009200BFF35F8F0021116001331F2BF5D96C
:100480007047C04640000034074B9B681030800026
:100490001950BFF35F8FBFF35F8F044B00211960CA
:1004A00082F310887047C04600ED00E0240100D0C0
:1004B0000048704700E400E010B5FFF7F9FF0023A3
:1004C00002E0034A04C00133072BFAD910BDC0462D
:1004D0008080808010B50388DA0A1C2A05D15B056C
:1004E0005B1502335B00C01810BD034B034A162195
:1004F0000348FF3103F034F9A4690010F47D0010C3
:10050000BC69001010B5091A0B1F0A4A88180A4A5C
:10051000904208D8C90706D45B105B055B0D0748FD
:10052000184380B210BD064B064A08210648FF3129
:1005300003F016F9FC070000FE0F000000E0FFFFCB
:10054000086A0010E87D0010BC69001010B5091A97
:1005500004394A08090B08D14905490D064B0B43DC
:100560000380064B1343438010BD054B054A102101
:100570000548FF3103F0F4F800F0FFFF00F8FFFF3B
:10058000386A0010C47D0010BC690010012383404C
:10059000034A10681840431E9841C0B27047C046D5
:1005A00000E100E0002A05D0044BC022520099501F
:1005B00019607047014A8023D150FAE700E100E05A
:1005C00010B50A001F230340012199404009FFF79D
:1005D000E9FF10BD024B9B6810308000C058704787
:1005E00000ED00E070B504000D00EFF3108672B668
:1005F0000C4B1B68002BFBD0BFF35F8F2000FFF775
:10060000E9FF094B984201D0A84205D132002900E8
:100610002000FFF739FF70BD044B054A0548E7216C
:1006200003F09EF8240100D0CD010010486A0010AC
:10063000047E0010BC690010F0B5CE46474680B578
:1006400083B006000D00EFF3108872B64F4B1B68A5
:10065000002BFBD0BFF35F8F4D4B9A6834001034F2
:10066000A300D7584B4B9F4207D0AF4200D18AE03E
:100670000197494BFB1A2F2B09D94246390030000C
:10068000FFF702FF03B0C0BCB946B046F0BD300072
:10069000FFF77CFF814600213000FFF791FFBFF399
:1006A0005F8FEFF30581002901D08C4211D1012326
:1006B000019C9C430020A3689D4212D00622A256B2
:1006C000002A0DDB53009B189B00334A2000D418EE
:1006D000F1E7324B324AFA213248FF3103F040F859
:1006E00020009D4249D106256557002D2BDB2A4B62
:1006F0006A00521992009B189A68A260DA79E27136
:100700009B795BB2A371002B0FDA2748A080224BA4
:100710006A00521992009B18244A11789971157039
:1007200049463000FFF74CFFA7E7680040198000FA
:10073000194BC0180430FFF7CDFE0100231D18002F
:10074000FFF7E0FEE2E7002912D100280ED0FF23D8
:100750008371174B838015490B78A3710E4A154B93
:10076000A41A644163431B0D0B70D9E7094FF2E7EC
:100770001149201DFFF7EAFED2E7104B084A09484D
:100780000F4902F0EDFF034F77E7C046240100D088
:1007900000ED00E0CD01001034020020806A00105E
:1007A000D47D0010BC69001001BD0000CC0A0220FD
:1007B00001BDFFFFAAAA00006E020020B46A00106B
:1007C0003B02000070B505000C00FFF771FEAB089E
:1007D0009B00C218116803232B40DB00FF209840C8
:1007E00081439C402143116070BD0000F8B5012297
:1007F00002432D4BD31A2F2B28D8EFF30583002B60
:100800002BD0EFF3108472B6284909680029FBD079
:10081000BFF35F8F244D26490600761B7641714356
:10082000090D4DB2234989689B00C95891421AD0DD
:100830000021032931D81C4B4A00521892009B1802
:100840009B795BB2AB421ED00131F2E71A4B1B4AD7
:100850009D211B48890002F083FF1A4B174A184854
:10086000194902F07DFF134A92681849D150184B7C
:100870001A7882711D70BFF35F8F0C4B00221A60D3
:1008800084F31088F8BD084B4A005618B6009E192C
:10089000FF27B7710F4AB280E9E70F4B074AA22141
:1008A0000748890002F05CFF34020020240100D0D8
:1008B000AAAA000000ED00E0BC6A0010A87D0010AC
:1008C000BC690010E46A001077020000CD0100103E
:1008D000CC0A022001BDFFFFF06A0010024B9C46CB
:1008E00061448900016070474000003410B5040085
:1008F000FFF7A0FD01002000FFF7F0FF01235B429E
:100900006360BFF35F8F10BD10B50400FFF792FD69
:1009100001002000FFF7E2FF01235B426360002338
:100920002372BFF35F8F10BD10B50D4C09E00D4B66
:100930000D4A0E481A2102F013FF2000FFF7D6FFE0
:1009400008340B4B9C4209D22368002BF5D0012BB5
:10095000EDD12000FFF7D8FF0C34F2E710BDC04600
:10096000DC020020F86A0010447E0010186B0010B2
:10097000EC02002030B5846A151B0B1D9B001B5830
:100980001B1B9D4204D3046A01238B40234202D1E6
:10099000043189000A5030BD00040843704700004C
:1009A000F0B5DE4657464E464546E0B587B0EFF314
:1009B000058303221A409246AE4B9200D7583B78EB
:1009C000534507D10123524693409946AA4B4A46C4
:1009D0001A6025E1A94BAA4AAA48922102F0C0FE5A
:1009E0007A6973009B19DB009046984443469C68E3
:1009F000DD68A54800F04CFB001BA941002900DA86
:100A000016E1002D74DB43461B699B469F4B9B45BB
:100A10004FD00823F85E4346598889B2FFF7BCFFE0
:100A200043465969D847029003910299039A0B00F3
:100A3000100013435CD013000A00002847DAA41A00
:100A40009D41009401954346009C019D9C60DD60A2
:100A50000021595E002900DAEAE078694B005B1852
:100A6000DB00C3189A68DB68A41A9D41002D00DAE8
:100A7000DEE039813D000835844604912A0005975F
:100A8000B346009E019F049B002B2ADB0023D45E0B
:100A900063001B19DB0063449C68DD68300039008B
:100AA000001BA94100291CDB1A000021595E04919A
:100AB000E9E743465B699B461B695846984700280F
:100AC00016D05B461A685B6802920393ADE76E48E6
:100AD00000F0DEFA029B039C1B184C41009301942A
:100AE000B1E70499059F5E464346198016809FE052
:100AF000434600229B5E3B813A69EFF3108372B656
:100B000011680029FCD0BFF35F8F02217A5E414655
:100B10000A807E803A69BFF35F8F0021116083F302
:100B2000108885E03969EFF3108372B60A68002AED
:100B3000FCD0BFF35F8FB88800B201225242BA8066
:100B40003A69BFF35F8F0021116083F310880500BD
:100B5000BC461CE0049300229A5E002A0EDB049B34
:100B60000021595E4B005B18DB0063449868D9682C
:100B700034003D00241A8D41002DEBDA04995D46C6
:100B8000009B9C4644460D800023E55E2280002D9C
:100B900012DB634658696C006419E4000419A66806
:100BA000E7686146083108229A5EAB4604916346C5
:100BB0000093A0468446D0E767463EE00023BB7121
:100BC000390008310823F85E0EE001246442E5177D
:100BD0009460D56008243B5F834204D00E800824D3
:100BE0003B5F138038813000431C29D07C6943006F
:100BF0001B18DB00E218E65E53881BB2002BE4DB17
:100C00001100F0E722002B0051461F48FFF7B2FE0B
:100C10001D4800F03DFA241A8D41002D22DC1FD022
:100C2000194B4A465A630823FE5E002E00DBD7E6C6
:100C3000BB881BB2002B00DB74E7BB79002BBDD156
:100C40000823FA5E002A0DDB796953009B18DB004C
:100C5000CB189C68DD68631CD4D16B1CD8D0D1E75D
:100C6000002CDDD040BF07B0F0BCBB46B246A94661
:100C7000A046F0BDC80400203C700540B46B0010D5
:100C8000707E0010E06B001000400540A1090010CC
:100C900070B504000D0011000126AE400662280068
:100CA000FFF7A0FC01212800FFF78AFC024B9C46BD
:100CB0006444266070BDC04638200000F8B5CE46BA
:100CC000474680B50600894690461F00C160FFF781
:100CD000B1FB154B9C466044800030614346337045
:100CE000BBB27381D0221206127872700122524276
:100CF0003281B2809B187380002406E0621E736903
:100D000065002D19ED005A530134BC42F6D3074B50
:100D100042469200D650064A41464846FFF7B8FF81
:100D2000C0BCB946B046F8BD40000034C80400203D
:100D3000A109001010B5084B1A68EFF3108172B6C4
:100D40001368002BFCD0BFF35F8F034803F072F9E8
:100D50000020002110BDC0468009002010B5064BC0
:100D60001B69002B01D0044810BD044B044A054800
:100D7000652102F0F5FCC0467C020020246C0010C6
:100D8000587E0010E06B0010F8B504000569EFF321
:100D9000108072B629680029FCD0BFF35F8F022152
:100DA000665E656971008919C9006D18002E02DB45
:100DB0000027E95F61802169BFF35F8F00270F6023
:100DC00080F31088002E2CDB069929610799696150
:100DD000AA60EB606B8801335B04590C002B00D1D7
:100DE000012169803000FFF7D7FD2169EFF31083FF
:100DF00072B60A68002AFCD0BFF35F8FA2882A80EF
:100E0000A6802269BFF35F8F0021116083F31088F1
:100E1000E368217801228A4003498C4663441A60C2
:100E2000F8BD01204042FBE73C20000070B582B0D5
:100E3000060014001D0008AB1B78002B07D100F042
:100E400059F922002B00121A8B41002B0ADB079B59
:100E50000193069B009322002B003000FFF794FFC4
:100E600002B070BD0020FBE7F0B5C64600B584B007
:100E70000500884616001F000AAB1C78FFF76EFFBE
:100E80000294019700962A004346FFF7CFFF04B073
:100E900080BCB846F0BD000030B504000A14438998
:100EA0009A422EDA406953009B18DB00C31825696B
:100EB000EFF3108272B628680028FCD0BFF35F8F72
:100EC000588885B20904090C884212D00020236991
:100ED000BFF35F8F0021196082F31088002811D0C2
:100EE000E368217801228A4007498C4663441A60EE
:100EF00008E00649294389B259800123A3710120E2
:100F0000E5E7002030BDC0463C2000000080FFFF28
:100F100010B50400FFF722FF2100FFF7BDFF10BD51
:100F2000F0B5CE46474680B583B005000C00EFF320
:100F30000583002B15D03F4B5B6A8B4209D33D4A9A
:100F4000926A82420BD28B4201D0012002E0002043
:100F500000E0002003B0C0BCB946B046F0BD01209F
:100F6000F8E7FFF7FBFEC3689946037898462E0022
:100F70002700484600F08CF802000B00B61A9F418B
:100F8000434604339B004A469B581B1A0022BA4230
:100F90000FDC0CD020BF274B5B6A9C422DD8254A22
:100FA000926AAA422BD29C4225D00120D2E7B342BA
:100FB000F0D9214A0023009328002100FFF754FFB5
:100FC00000281EDD1B4B5B6A9C4205D8194A926AB9
:100FD000AA4202D29C4200D120BFFFF799FF154BD5
:100FE0005B6A9C4221D8134A926AAA421FD29C4251
:100FF00019D00120AEE70020ACE70020AAE70120CD
:10100000A8E70C4B5B6A9C4209D80A4A926AAA423A
:1010100007D29C4201D001209CE700209AE70020E3
:1010200098E7012096E7002094E7002092E701204E
:1010300090E7C04600400540350D0010004870475D
:101040000040054010B50B4B1B69002B04D00A482B
:101050000A21FFF743FC10BDFFF7F0FF0400032156
:1010600000F00CF80348102303222100FFF726FEAE
:10107000EDE7C0467C0200208009002010B5024A3E
:101080000248FFF7BDF910BD486C00107C04002039
:101090000200436A906A1900536A9942FAD1704774
:1010A000416A00E0416A9942FCD300E0416A9942FA
:1010B00002D1816A9142F9D37047F0B5C64600B5B6
:1010C000804614001D00FFF7E3FF06000F0022001A
:1010D0002B0092197B41994202D804D1904202D947
:1010E00001225242D3174046FFF7DAFF80BCB846D0
:1010F000F0BD000010B50248FFF7CAFF10BDC046A2
:101100000040054010B502000B000248FFF7D5FF74
:1011100010BDC04600400540074B98420AD0162338
:1011200001229A40054B1A60054B1B681100994338
:10113000FAD170471723F3E70080034000F0004026
:1011400008C0004070B5046BE30701D4200070BDF7
:101150000B4BC3180B4A1A60456A836AAD01ED1840
:10116000AD02062000F016F9074900F013FB01005C
:10117000280000F00FFB0021FFF7C4FFE6E7C046A0
:1011800030300000010300004E0E000070B5040076
:101190000E001500FFF7D6FFE36A5E403540024BB4
:1011A000E3181D60206370BD2C10000070B50500B1
:1011B0000C00062000F0EEF8C000210000F0EAFA72
:1011C0000130C60907D00E4B9E4215D840083400A6
:1011D0003F26064000E001246C62AE62002200213E
:1011E0002800FFF7D3FF062000F0D4F88000A1010B
:1011F000891900F0CFFA70BD0026024CECE7C0461A
:10120000FEFF0000FFFF0000002909D00A22064B64
:101210009C46604443425841044B4000C2527047D0
:1012200080225200F3E7C0460080FCBF8409002002
:1012300070B504000D00062000F0ACF800281ED0A8
:10124000104B9C421CD01622012393400E4A13607F
:101250002000FFF761FF00212000FFF7D5FF2900E4
:101260002000FFF7A3FFE26A70235A400E331340B9
:10127000064AA2181360064B23630323A36470BDC0
:101280001722E1E70080034000E000402C1000003E
:1012900001030000F8B5D646474680B506000D00AC
:1012A0001700984644002418A400294B9C46644427
:1012B0006368089A934200D26260331FDBB29A4699
:1012C000012B2ED980221201C0239B01E3181A6042
:1012D000204BB200D158002907D0586900F05AFAC3
:1012E000013043001B18033BFDD27F0123685F40A0
:1012F000E0233B4080225201A21813605346012B89
:101300001AD980239B01E318802212011A60089BDE
:101310006360104BB6004246F250C0BCBA46B046BD
:10132000F8BD012DCED10322C0239B01E3181A6022
:10133000A368DB07FCD5D8E72168694003230B408D
:101340001360A3680122AA401A42FAD0D9E7C04626
:101350000080004080040020F0B583B005000E003E
:1013600017001800089900F015FA0300089A1402F3
:1013700000943A0031002800FFF78CFF03B0F0BD65
:1013800010B582B0802464000094FFF783FF02B0A0
:1013900010BD0000014B8000C05870478004002041
:1013A000F0B5C64600B504000E0017001D00374812
:1013B00000F0F0F98046364BFA18364B9A4239D88D
:1013C0000100380000F0E6F90200103A98235B00B3
:1013D0009A4235D86B1E062B38D8069B013B062B4C
:1013E00034D83F09474537D32D04069B1B031D43C3
:1013F0002368002B36DB284B9C4244D00C2201236F
:101400009340264A1360264A1360264A1268190040
:1014100091430A1EF9D12660A060234BE3182132C4
:101420001A602268002AFCDAE56008221A6080BC93
:10143000B846F0BD1D4B1E4A1E48112102F090F91E
:101440001D4B1B4A1B48192102F08AF91B4B184AF5
:1014500018481C2102F084F9194B154A154823211C
:1014600002F07EF922683F231340B342C3D1A36840
:101470001B051B0D8342BED1E368EE22D20213404E
:10148000AB42B8D1D3E70D22B9E7C046001BB70085
:1014900080E84BD380F8A93200C0024000E0004051
:1014A00000F0004008C00040043000006C6C0010E8
:1014B000887E0010BC6C0010086D0010246D0010B8
:1014C000706D001080239B000B43014AD36270476C
:1014D0000080054010B5010018231B8814221088D5
:1014E000984710BD10B5010018231B8816221088DC
:1014F000984710BDF0B5C64600B507000E000025A0
:101500000123984600E00135B5420AD2AC003C19EF
:101510002068FFF7DFFF20600028F4D10023984601
:10152000F1E7404680BCB846F0BD0000074BAA2258
:1015300012011A608D225200DA60054B054A1A60CA
:10154000024B5B68002BFBDA7047C046004002404C
:101550000060024000B0FA0010B5040001E008CCC1
:101560009847024B9C42FAD310BDC0460C6900104C
:101570007047000010B50248FFF7EEFF10BDC046EF
:10158000D068001010B50248FFF7E6FF10BDC04656
:1015900004690010054B064A1A60064B064A1A6099
:1015A000064B1A68044B9343FAD1704700E00040A1
:1015B000BFCDFBFE00F00040FE7F3C0008C00040B5
:1015C000044BDB6C002B03D1034B8022D2021A6048
:1015D0007047C046000011504C201150044B054A82
:1015E0001A60054B1B68DB43DB01FAD17047C0462C
:1015F00000F00040FFFFFF0108C00040034B402205
:101600009A675A671A67DA667047C04600F0014069
:1016100010B5FEF729FF10BD70B5044DA968044C44
:10162000C022200000F098FFAC6070BD00ED00E02B
:101630000000002070B50420FFF7ACFE064900F062
:10164000A9F805000024002C00DD70BDE0B22900DF
:10165000FFF738FF0134F6E740420F0030B583B0A2
:10166000274B00229A67FFF761FF264B01221A6081
:10167000234B5B6C012BFBD1234B03221A60204BC5
:101680009B6B012BFBD10133009304331F4A0121D3
:101690001F48FFF785FE052300931E4A01211E48BF
:1016A000FFF77EFE1D4B002202210420FFF768FE9B
:1016B0001B4D2B00002201210520FFF761FE194C74
:1016C0002300002200210720FFF75AFE23000022FA
:1016D00000210820FFF754FE8023DB000093230045
:1016E000002200210920FFF737FE2B0000220021F5
:1016F0000620FFF745FEFFF79DFF03B030BDC04653
:10170000008000403CB0004030B00040002F6859DD
:1017100000800240008C864700C00240001BB700DA
:1017200040597307006CDC0201480421014B184743
:10173000A0020020F5140010014B5B681847000060
:10174000A0020020124A936F9B0815D29066D166C2
:10175000002905D0FFE7FFE7FFE7516F106F7047E3
:1017600004B580210906C2175140002800D0C843A3
:1017700005F09EF8002104BDF0B5146E556E576F4C
:10178000166FFFF7E3FF1466556657671667F0BDDF
:10179000000000D0114A936F9B0813D21066516667
:1017A000002905D0FFE7FFE7FFE7516F106F704793
:1017B00004B5002801D00020C04305F079F80021CD
:1017C00004BDC046F0B5146E556E576F166FFFF727
:1017D000E5FF1466556657671667F0BD000000D038
:1017E00094464A4A926F9208624601D228E0C04667
:1017F000F0B5464E346E756E776F366F00F020F898
:101800009446424A14665566576716676246F0BDAD
:1018100094463E4A926F9208624601D254E0C04616
:10182000F0B53A4E346E756E776F366F00F04CF847
:101830009446364A14665566576716676246F0BD89
:10184000002B24DB11D000293EDA00B5C943404209
:1018500000D1013100F038F8C943404200D10131D4
:10186000DB43524200D1013300BD002AEBD10028F6
:1018700001D1002905D00020C90FC90701D1C043FB
:10188000410800B505F00CF80022002300BD00B5AA
:1018900000290ADBDB43524200D1013300F014F887
:1018A000C943404200D1013100BDC943404200D18B
:1018B0000131DB43524200D1013300F005F8DB4334
:1018C000524200D1013300BD002923D1002B18D191
:1018D000002A0CD0BC460D4F38667A6600210023E2
:1018E000FFE7FFE7FFE77A6F386F6746704700282A
:1018F00001D00748010000B504F0D2FF0022002308
:1019000000BD02000B00002000217047000000D045
:10191000FFFFFFFF002B00D0BFE0130C28D1002AEF
:10192000E7D080B4114F39667A66FFE7FFE730B43D
:10193000040C7B6F396F1B0423433B667A66FFE719
:10194000FFE7FFE7C04684B27B6F3D6F1B04234374
:101950003B667A66FFE7FFE7C04600232C042D0CA8
:101960007A6F386F00196941B0BC7047000000D031
:10197000F0B594460025140E01D112020835140F5B
:1019800001D112010435940F01D192000235D40F18
:1019900001D152000135D40B0134254F7C66254C12
:1019A0003C660E0C93B2FFE7FFE7FFE73C6F664330
:1019B000360C7703BE467343DF0B5B04C01AB94194
:1019C000130C7343DB18C91ACE086643360CB644B1
:1019D00093B273431F0F1B01C01AB941130C734319
:1019E0001F0B1B05C01AB941860D8F023E4366438B
:1019F000360C092D24DB520A7243801A7703460AFB
:101A00006643360C16235B1BDE40DF40BF1964467D
:101A10006643821B7046043506330100D940A84056
:101A2000C01900D30131A24206D20023F0BD00004C
:101A3000000000D0FFFFFFFF121B0130F3D3F1E7DE
:101A400009277F1BFE406446A2B27243801A00D26F
:101A50000139220C7243130C1204821A99410B00B3
:101A60007046043513370100F940A840801900D3AF
:101A70000131002B02D1A2420AD2F0BD013000D3C5
:101A80000131121BFAD2013BF8D1A24200D2F0BDC3
:101A9000013000D30131121BF7E7F0B51C0C00D068
:101AA00080E00CB400251C0A04D11B02160E33433F
:101AB000120208351C0B04D11B01160F334312010F
:101AC00004359C0B04D19B00960F334392000235E2
:101AD000DC0B02D192185B4101351C009718644160
:101AE0000134464F7C66464C3C660E0CFFE7FFE730
:101AF000FFE7C0463C6F6643360C7703BE4697B29D
:101B00007743C01B00D20139C01B00D201399FB2FC
:101B10007743C91BC91B170C77437E04FF0B801B3F
:101B2000B941CE086643360C0C2D33DBB644120B9C
:101B30001F053A431B0B97B27743C01B00D20139F4
:101B40009FB27743C91B170C77433E043F0C801BA1
:101B5000B941860D8F023E43664329277F1BFE4015
:101B60000C3D7746AF40BF1930BCA2B2ABB2724356
:101B70007343801A9941220C7243130C1204801A89
:101B8000994102000B000137001BA941F9D2781ED0
:101B90000021F0BD0C277F1BFE4077467F0BAF4036
:101BA000FF19E0E700245D1C07D0144F7D663966FD
:101BB000FFE7FFE7FFE7FFE73C6F95B29EB26543A3
:101BC0006643401BB141150C1E0C65436643360449
:101BD0002F0C3E432D04401BB141994204D2020018
:101BE0000B0020000021F0BD01D19042F7D3801AF4
:101BF000994101349942F2D3F6E70000000000D089
:101C0000FFFFFFFF48404140484018B41B4B5B6852
:101C1000FC46019308BD04DFDF1E001018B4174B0B
:101C20001B68FC46019308BD00DFE91E00109446C6
:101C3000134A926F920809D2624618B40F4BDB68C0
:101C4000FC46019308BD0CDFA12100100C4AF0B541
:101C5000146E556E576F166F6246FFF7EEFF084A17
:101C60001466556657671667F0BD18B4034B9B683A
:101C7000FC46019308BD08DF452000107C070020CA
:101C8000000000D0FFB550404240504059404B400A
:101C9000594000E0FFB5154F4C00640D03D0BC4225
:101CA00004D10C0314D80020090D09055C00640D53
:101CB00003D0BC4204D11C030AD800221B0D1B0513
:101CC00001264B4009D44B4003D58B4200D18242C0
:101CD000FFBD9942FCD19042FFBD0B43DB1803438B
:101CE0001343F5D0C9434918FFBD0000FF070000AA
:101CF00000B5FFF7CFFF804100BDC04600B5FFF73C
:101D0000C9FF01D9002000BD012000BD00B5FFF7CB
:101D1000B9FF01D9002000BD012000BD00B5FFF7CB
:101D2000B1FF804100BD012040054A00121804D8CF
:101D30005A00121801D80020704701207047000097
:101D40000021002805D17047C1174840401AFAD039
:101D5000C90713B5064B1B6898470CBC441CA2402E
:101D60001005120B0349091B09051943114310BD46
:101D70007C0800201F04000010B54C00620D802379
:101D8000D218DB00D21A5B057E2A10DD9E3A13DAE8
:101D9000CC170903490819435242D1406400013469
:101DA0001532202A05DAD0400843604310BD0020D8
:101DB00010BD0846604310BDC80FC018013810BDE3
:101DC00018B4044B5B6AFC46019308BD24DF512321
:101DD000001000007C07002070B513231C78012C34
:101DE00012D0012C12DC214B214A93642148FFF7C9
:101DF00071FB214B186070BD1C491D4A9800815031
:101E000001331F2BF8D9ECE70023FAE71B48FFF753
:101E100069FB05001A48FFF765FB023803789B0051
:101E20007F2B09DD12488022290000F095FB022C4F
:101E300008D0022CDADCD6E7124B134A13483321C0
:101E400001F08EFC124B1A88B5231B029A4209D16D
:101E5000104B1A88104B9A4204D1104B1A88104B21
:101E60009A42E6D00020FEF797FAC046A51E001061
:101E70007C0700204C3300007C0800205344000005
:101E8000534600008C6D0010947E0010D06D001041
:101E900054380000D8380000494600009C38000043
:101EA0005946000007B56046002800D100BE0188F1
:101EB0000A0A0230DF2AFAD1C9B2820804D30288A2
:101EC00040880004104300E00068024A505003902C
:101ED00007BD00007C0700200FB403BC0CBCF0B5AC
:101EE0000124E407634000E0F0B50C0DCF0F661E3F
:101EF0003605891B640503D3C943404200D3013131
:101F0000640D03D0661CF60A07D0E41B00207F0096
:101F1000791C89078912803C24031D0DDF0F6E1E7A
:101F200036059B1B6D0503D3DB43524200D30133BF
:101F30006D0D03D06E1CF60A07D0ED1B00227F004A
:101F40007B1C9B079B12803D2D032F1B661B58D4C7
:101F5000A446202E46DA20371400BC401D00BD40A8
:101F6000F24033412A4380185941CB0F05D0C94371
:101F7000C043002264425041514162464D0D28D178
:101F80000D0D07D100281FD0241940414941013AC5
:101F90000D0DF9D0640006D3013000D30131002CBF
:101FA00001D140084000013A0BD4941CE40A04D14A
:101FB00012051144DB071944F0BDD907204B194322
:101FC00000E0D9070020F0BD0029DDD1002CDBD1D5
:101FD000F0BD0132C6074008CD0728434908002E4E
:101FE000E1D0D9E73C2E29DA203E40371400BC402E
:101FF00000D00124F24014431A00BB401C43D31705
:10200000ACE7AC46202F08DA20360400B4400D00BF
:10201000B540F84039412843A5E73C2F0CDA203F72
:1020200040360400B44000D00124F84004430800C6
:10203000B1400C43C117EAE710001900002494E7EF
:102040000000F07FF0B50C0D661E3605891BE60A10
:102050006405640D02D0651CED0A04D00020012146
:102060000905803C2403A4461C0D671E3F05DB1BAD
:10207000E70A6405640D02D0651CED0A04D0002255
:1020800001231B05803C24037740644497B484B249
:1020900096B27443070C7E43150C6F4380B26843BD
:1020A000361802D3012000043F183004350C001903
:1020B0007D41844688B29AB250430C0C62431F0C97
:1020C0007C438EB27E43921902D301263604A419B2
:1020D0001604170C3618674101BC81B29AB25143FD
:1020E000040C62431B0C5C4380B25843121802D3A9
:1020F0000120000424181004130C401863412D180B
:102100005E410020474106BC88B293B258430C0C94
:102110006343120C544389B251435B1802D301212B
:102120000904641819041A0C091862416D18564103
:102130000020474118BCF902720D1143F0026A0DEC
:102140001043ED020A0D03D16D1940414941013B95
:10215000124E9B1B7600B3420ED26D0007D30130A6
:10216000002671416646354301D1400840001B05F9
:10217000C918E4072144F0BD0BDA013306D1013060
:1021800004D101314F0D01D04908F2E7E1070020E9
:10219000F0BD013631050020EBE70000FF03000031
:1021A000F0B51C0D671E3F05DB1BE70A6405640DD7
:1021B00002D0661CF60A04D0002201231B05803CD5
:1021C0002403D0252D060026F6432E661E096E66D2
:1021D000CE0FF619B44649004F0D02D07E1CF60A08
:1021E00003D000200021403F3F033E1BB600B44413
:1021F000013F7F05C91B49082E6F013676089C02F6
:10220000950D25437543ED137543AD1301356D10E1
:10221000F603761B0CB4CC02450D2C43A2B2B3B22C
:102220005A43270C7B43350C6F43A4B26C431B19F4
:1022300002D3012424043F191C041D0CA4187D4161
:1022400024196D41009A91B2ACB26143170C7C43E2
:102250002B0C5F4392B25A43A41802D301221204FA
:10226000BF182204230C52187B41019C6C431B199C
:10227000520ED9010A434401A01A81B2B2B25143AD
:1022800003145A43360C734387B27743D617D219D7
:1022900000277E4136049B191704160C7F185E41F7
:1022A0007316ED18F301002680337541A90F06D18E
:1022B0006400690AE8055B0A184309D22FE004228A
:1022C000944480337541A90AA8059B0A184326D374
:1022D000404149412404009A019B0D005543641B71
:1022E0004343E41A95B286B27543170C7E43030C40
:1022F0005F4392B25A43B61802D301221204BF18A8
:102300003204330C52197B4152429C41002C02D4BE
:102310000022013051414008CA071043490802B069
:102320006246D7079210084BD218084B9A4203D244
:1023300012058918C919F0BD0020002A01DC3900F6
:10234000F0BD01331905F5E7FD030000FE070000AD
:10235000002200B5203200F004F8080000BD0000A3
:1023600000220B150AD410B5944600F031F814146D
:10237000013400DA0021CB17144C20470020002143
:1023800070476244343A0CD40C2A07DA04009140B6
:10239000904052422032D440214310BDD843D9430B
:1023A00010BD203207D40C469440524220321141D5
:1023B000D040204310BD0800C917203203D4524238
:1023C0002032104110BD1800190010BD83230010E9
:1023D0000A0DCC0F531E1B05C91A520503D3C9435E
:1023E000404200D30131520D03D0531CDB0A07D009
:1023F000121B00206400611C89078912803A1203B5
:10240000014BD21A70470000FF03000070B5132380
:102410001E782A48FFF766F80500012E11D0012E1C
:1024200009DDAB1E1B789B007F2B40DD24488022FA
:10243000290000F091F82348FFF74CF8224B186070
:1024400070BD1F485422290000F086F81F4B1A88DF
:102450001F4B9A421CD1A7239B011A881D4B9A42FD
:1024600016D11D4B1A881D4B9A4211D11C4B1A884C
:1024700094239B019A420BD11A4B1A881A4B9A4209
:1024800006D11A4B1A681A4B9A4201D1152307E05C
:102490001848FDF781FF184C094A99008C50013308
:1024A0001F2BF8D9144B064A1362D361B7E7134BBD
:1024B000134A1448422101F053F9C0465346000024
:1024C000800800204C3300007C080020EE2900002A
:1024D000C40F0000C20D0000962B0000C0B5000024
:1024E000182B0000CC2A000010B50000FC2C0000C6
:1024F00051ED8764246F0010092500102C6E001028
:10250000A87E0010606E001007B56046002800D15C
:1025100000BE01880A0A0230DF2AFAD1C9B2820855
:1025200004D3028840880004104300E00068024A97
:102530005050039007BD000080080020014804218E
:10254000014B1847B0020020F5140010014B1B6826
:1025500018470000B0020020014B5B6818470000DC
:10256000B0020020704710B5002802D00B684968FF
:10257000984710BD0100002007E083001B185B0096
:10258000501C08601078C01830380A681378303B47
:10259000DBB2092BF1D97047F0B5DE4657464E46FF
:1025A0004546E0B583B093461F000C9B9A460D9CB0
:1025B0000E9B99460F9B9B0717D0B8460F0006004D
:1025C00022E0551C4B4641462020B84701342A00E2
:1025D000B442F6D33D004F465C46019B9B46B14654
:1025E0004646B84637002E000EE00192A3468846C4
:1025F0004E46B9460700EBE7013C551C5346185DB3
:1026000043463900B0472A00002CF5D135003E0082
:1026100047460F9B9B0711D4100003B0F0BCBB468C
:10262000B246A946A046F0BD541C4B464146202068
:10263000B8472200531BB342F6D3EDE7B0464E46EF
:10264000B9462F005D46F5E7F0B5CE46474680B562
:1026500085B0944698460C9D0D9C0EAB1B78994610
:10266000109A119B129EB7071CD4002B0CD0F707B1
:102670000AD54F46002F02D10C37374204D0013B18
:1026800002E030272F550134944201D21F2CF8D993
:10269000F70707D59C4205D21F2C03D830272F55AA
:1026A0000134F5E7F70612D5770505D4002C03D0E1
:1026B000944221D09C421FD00F9A102A2FD00F9AFB
:1026C000022A36D01F2C0AD830222A5501341F2C5A
:1026D00005D84A46002A32D02D222A5501340396C5
:1026E00002930194009543466246FFF755FF05B0FB
:1026F000C0BCB946B046F0BD621E012C17D00F9F7A
:10270000102F0BD014000F9A102AD8D1B206D6D5AC
:102710001F2CD4D858222A550134D3E7023CB206E4
:10272000F1D41F2CEFD878222A550134CAE71400BF
:10273000C2E71F2CD3D860322A550134C2E7720792
:1027400003D52B222A550134C9E73207C7D52022E9
:102750002A550134C3E7F0B5DE4657464E46454696
:10276000E0B593B081468A46089209931CAB10CB22
:102770001B789B461E9D219B9846002C03D110235D
:1027800042469A4390468023DB0046461E4042461E
:102790001A4218D0002C22D0002614E0424692069D
:1027A0001BD54121C918C9B20A39C9B2771C0AAB75
:1027B000995529002000FEF7EDFFAC4210D31F2FE2
:1027C0000ED83E00040029002000FEF7E3FFCBB244
:1027D000092BE3D83033D9B2E8E76121E2E72700DB
:1027E00043460693209B05931F9B049303955B46EA
:1027F000029301970AAB0093099B089A51464846F9
:10280000FFF722FF13B0F0BCBB46B246A946A04674
:10281000F0BDF0B5DE4657464E464546E0B597B0AA
:102820000A900B910C929A46209B9946219F22AACE
:1028300013789B46249B0993259C289B98464A46DF
:102840003A4302D11032934398468022D200454643
:102850001540434613420AD04A463A4341D0002528
:102860002E0053460D934D46099B9A4621E02E00BB
:1028700053460D934D46099B9A461AE042469206EE
:1028800023D54122D218D2B20A3AD2B2731C994649
:102890000EAB9A555246230028003900FEF7B8FFC8
:1028A000BC4220D813D04B461F2B16D84E460500ED
:1028B0000F005246230028003900FEF7A9FFD3B2CB
:1028C000092BDBD83033DAB2E0E76122DAE7AA4538
:1028D000E9D94E460D9B9A4608E04E460D9B9A4616
:1028E00004E0002602E04E460D9B9A4643460693BE
:1028F000279B0593269B0493099B03935B460293B6
:1029000001960EAB009353460C9A0B990A98FFF769
:102910009BFE17B0F0BCBB46B246A946A046F0BD30
:10292000F0B5DE4657464E464546E0B591B0804686
:1029300089460C929A461A9C1B9D22002B0020006F
:102940002900FFF7F0F9002800D0F2E001225242FE
:10295000D54B20002900FFF7E1F9002800D0E8E07E
:1029600001225242D14B20002900FFF7C1F9002873
:1029700000D0DEE00022002320002900FFF7B8F994
:10298000002800D0EAE0069407958023DB001E9A19
:102990001A400D921E9A1A4201D106231C930698E2
:1029A000079902000B000892099303000A000243F2
:1029B00000D1DFE0080D4005400DBD4EB446604437
:1029C000079E3203120B1E00BA4B13431F00FFF782
:1029D000BBF9B94AB94BFFF748F9B94AB94BFFF708
:1029E0001DF9089009910022B74B30003900FFF71C
:1029F0000CF9B64AB64BFFF738F902000B000898FD
:102A00000999FFF70BF9FFF7B7F98346FFF79CF930
:102A100006000F00AF4AB04BFFF727F90022AF4B7B
:102A2000FFF7FCF8FFF7A8F90890AD4AAD4B30006E
:102A30003900FFF71AF906000F000898FFF784F92C
:102A4000A94AAA4BFFF711F902000B003000390028
:102A5000FFF7DBF806000F0002000B00FFF705F997
:102A60000A900B91089BA24A9446634400210022DD
:102A7000089109921B0509930023089332003B003B
:102A800030003900FFF7CAF80E900F9132003B007A
:102A900000208021C905FFF7B8F806000F000022CA
:102AA000944B0A980B99FFF7C2F80022924BFFF75C
:102AB000B5F802000B000A980B99FFF7B8F800224E
:102AC0008E4BFFF7ABF802000B000A980B99FFF74B
:102AD000AEF802000B0030003900FFF79FF802004B
:102AE0000B000E980F99FFF7A2F80022714BFFF729
:102AF00095F8089A099BFFF7B8F806000F000896AA
:102B00000997069A079BFFF709F900280BD00123C4
:102B10005B429C46E3440022774B30003900FFF7CC
:102B200086F8089009915B466333C62B45D8042686
:102B300023E01E9B04931D9B03931C9B0293009414
:102B4000019553460C9A4946404600F0FBF811B0F7
:102B5000F0BCBB46B246A946A046F0BD002100220B
:102B600006910792069480231B069C46AC4463465C
:102B700007930AE700239B4604261E9B1B0528D5C6
:102B8000089A099B190011430FD05D4A5D4B0698C6
:102B90000799FFF7BBF800287AD000225A4B069815
:102BA0000799FFF7A5F8002872D01C9B5B4506DD4E
:102BB0005A469B1A013B1C9303E00526DDE70023E0
:102BC0001C938023DB001E9A1A431E9200260023CA
:102BD0009B461D9B9E4265D29F1B02231E9A1A4054
:102BE0000A921E9A134202D0002E00D000275B46A4
:102BF000002B07D0089A099B06980799FFF717F84A
:102C0000069007910022002320002900FFF770F8AA
:102C1000002800D07CE03D4B1E9A1340049303979C
:102C20001C9B0293069B079C0093019453460C9AAD
:102C30004946404600F086F8002E00D187E71E9BEB
:102C40009B0671D54525441C534602004946280081
:102C5000C0475A46D317D2185A4005230593013E60
:102C60000496002303930A3302935B46DB0F019320
:102C700000925346220049464046FFF76CFD0A9BEE
:102C8000002B00D163E7020047460C9E1D9D53E0D8
:102C90001C9B002B9DD00D9B002B9AD01C9B013BB5
:102CA0001C9396E7002798E7FFFFEF7FFFFFEFFFFA
:102CB00001FCFFFF0000F03FFB799F501344D33F1E
:102CC000B3C8608B288AC63F0000F83F61436F633A
:102CD000A787D23F71A379094F930A400000E03FD4
:102CE0001655B5BBB16B0240EF39FAFE422EE63FF6
:102CF000FF03000000002C400000244000001840AA
:102D00002D431CEBE2361A3F80842E41FFF7FFFF74
:102D1000069C079D2200290080200006844661440D
:102D20000B000692079376E765258CE7541C534603
:102D300049462020B8472200931BAB42F6D310002F
:102D400005E7C046F0B5DE4657464E464546E0B577
:102D500095B00690079193469946209F1E9A1F9B17
:102D600010001900FEF7DFFF002831D10122524286
:102D7000BC4B1E981F99FEF7BBFF002837D10122DC
:102D80005242B94B1E981F99FEF7C8FF00283DD14B
:102D90000022B64B1E981F99FEF7C0FF00284AD1AB
:102DA0000022B34B1E981F99FEF7A2FF002842D1C4
:102DB000002200231E981F99FEF79AFF00284AD18F
:102DC00000239846229B5B0500D4B0E0002452E02B
:102DD000229B0393219B029303230193A54B009312
:102DE0004B465A4607990698FFF7D6FB08E1229B07
:102DF0000393219B0293042301939F4B00934B4623
:102E00005A4607990698FFF7C7FBF9E0229B5B0734
:102E10000ED59A4B04222299039121990291019295
:102E200000934B465A4607990698FFF7B5FBE7E033
:102E3000934B0322EFE7229B0493219B039302977A
:102E40001E9B1F9C009301944B465A460799069877
:102E5000FFF766FDD4E01E9A1F9B00200021FEF7BD
:102E6000D4FE1E901F9101239846ABE70CAB302295
:102E70001A55013F01341F2C01D8092FF6D81E988E
:102E80001F99FEF779FF0500FEF75EFF02000B00B9
:102E90001E981F99FEF7B9FE7A4BFA009B181A6824
:102EA0005B680A920B93FEF7E0FE08900991FEF72B
:102EB00087FF0600FEF744FF02000B0008980999FF
:102EC000FEF7A3FE0890099100226F4BFEF726FF44
:102ED00000282ED001363000FEF732FF02000B0032
:102EE0000A980B99FEF70AFF002801D00135002649
:102EF000002F2CD12800FEF727FF02000B001E98A0
:102F00001F99FEF782FE06000F0000225E4BFEF7BF
:102F1000EFFE002846D100225B4B30003900FEF75F
:102F2000FDFE00283ED1EB073CD501353AE00627EF
:102F30004CE70022544B08980999FEF7D9FE002867
:102F4000D6D1002E01D0F307D2D50136D0E7AA465C
:102F50001F2C11D8013F0A213000FEF71BFC651C15
:102F600030310CAB19550A213000FEF713FC092E45
:102F70000ED906002C00EBE755461F2C0CD87B1E03
:102F8000002F09D00CAA302111551F000134F4E79D
:102F90002B0055461C00F0E71F2C03D80CAB2E224B
:102FA0001A5501341F2C10D80A212800FEF7CAFB3D
:102FB000661C30310CAB19550A212800FEF7C2FB04
:102FC000051E01D03400EDE734000323229A13409C
:102FD000012B1CD01F2C06D84346002B32D00CAB43
:102FE0002D221A550134229B0393219B02930194B5
:102FF0000CAB00934B465A4607990698FFF7CCFA5C
:1030000015B0F0BCBB46B246A946A046F0BD219B18
:10301000002B13D04346002B02D10C3313420FD0A8
:10302000219B013B2193190003E00CAB30221A5580
:1030300001348C42CED21F2CF7D9CBE72199F8E787
:103040002199F6E7229B5B0704D50CAB2B221A557E
:103050000134C8E7229B1B07C5D50CAB20221A55AB
:103060000134C0E7FFFFEFFFFFFFEF7F65CDCD41EC
:1030700065CDCDC10C6F0010106F0010006F0010F7
:10308000086F0010B08000100000E03FF0B5DE4691
:1030900057464E464546E0B593B007008A469346EC
:1030A0001193002900D12CE3002508E06C1C5B463D
:1030B0002A005146B847119B013311932500119BFB
:1030C0001878002800D11EE32528EFD10133119391
:1030D0000023180020E0012318430132119201243B
:1030E00018E00223184301321192012412E0042354
:1030F00018430132119201240CE0082318430132D5
:103100001192012406E01023184301321192012488
:1031100000E00024002C09D0119A1378203BD9B28A
:103120001029F6D88B00C449CB589F468146119B85
:103130001A781300303BDBB2092B10D92A2A13D09E
:103140000B94119B1A782E2A20D0119A1378683B81
:10315000D9B2122965D88B00B849CB589F4611A81F
:10316000FFF708FA0B90ECE71C9B1A1D1C921B68DA
:10317000002B04DB0B93119B01331193E1E7022237
:103180000100114389465B420B93F4E78022D20091
:103190004946114389465A1C11925A781300303B14
:1031A000DBB2092B0BD92A2ACFD11C9B1A1D1C92EA
:1031B0001C68002C08DB119B01331193C5E711A893
:1031C000FFF7D8F90400C0E70024F4E780235B0090
:1031D00049460B43511C119151786C2901D09946F5
:1031E0001FE0C0239B0049461943894602321192D1
:1031F00017E0802349460B43511C119151786829EF
:1032000001D099460DE0C023494619438946023250
:10321000119206E080235B0049461943894601323A
:103220001192119B187867281CD8252800D25EE2DD
:103230000300253BDAB2422A00D958E29300804AC3
:10324000D3589F4680239B00494619438946013243
:103250001192E6E780235B00494619438946013213
:103260001192DEE7782800D941E2692800D23EE2D7
:103270000200693AD2B201239340724A134210D13C
:103280001A0600D50CE25B0500D430E21C9B1A1D27
:103290001C921E68002C00D0BAE101225242330079
:1032A00096E16F2842D005D8582841D0622803D132
:1032B000022606E078283DD010234A469A439146DC
:1032C0000A26582838D0692805D0642803D00C2253
:1032D0004B46934399464B465A0502D501229343E8
:1032E000994669282DD064282BD04B469A0500D5E5
:1032F000AAE0DA0500D5C2E05A0600D4D3E01C9A51
:10330000111D1C911168FF220A404B4605930B9B2F
:103310000493039402960023019300925B462A00D3
:1033200051463800FFF717FA05002AE00826C8E7DB
:103330001026C6E71026C4E720224B4613439946C1
:10334000C1E74B469A0520D4DA0551D45A0666D512
:103350001C9A111D1C911168FF220A40D0171118E8
:1033600041404B4605930B9B049303940296D20F66
:10337000019200915B462A0051463800FFF7EBF9B5
:103380000500119B0133119399E61C9A073207211E
:103390008A43110008311C91116853689C46DB1761
:1033A0000C930D930C9A0D9B100048400E900D9BB2
:1033B00061464B400F930E980F990C9A0D9B801A03
:1033C00099410E900F914B4608930B9B07930694DF
:1033D0000496002305936346DA0F02920090019150
:1033E0005B462A0051463800FFF713FA0500C8E78C
:1033F0001C9A111D1C911268D01711184140059399
:103400000B9B049303940296D20F019200915B46AA
:103410002A0051463800FFF79EF90500B1E71A0669
:1034200005D51C9A111D1C910023D25E96E71C9AAB
:10343000111D1C91126891E7107F0010547F00103D
:10344000A07F0010419000001C9A073207218A4398
:10345000110008311C9108930B9B07930694049666
:1034600000230593029353681268009201935B4610
:103470002A0051463800FFF7CCF9050081E71C9A75
:10348000111D1C9105930B9B04930394029600233A
:103490000193136800935B462A0051463800FFF7FA
:1034A0005AF905006DE71A0606D51C9A111D1C91E4
:1034B00012681204120C28E71C9A111D1C91126844
:1034C00023E746281AD01C9B0733072293431A0090
:1034D00008321C924A4604920B9A039202941A688C
:1034E0005B68009201935B462A0051463800FFF763
:1034F00029FC0500119B01331193E0E520234A4686
:103500001A439146DFE7672801D0472804D180237A
:103510001B014A461A439146452801D0472803D14A
:1035200020234A461A4391461C9B073307229343A4
:103530001A0008321C924A4604920B9A0392029493
:103540001A685B68009201935B462A005146380076
:10355000FFF7E6F90500119B01331193AFE5022354
:103560004E461E404A4613421ED001241C9B1A1D83
:103570001C926A1C904618785B462A005146B84750
:10358000002E14D1119B01331193454697E5551C2C
:103590005B4651462020B84723002A005C1C0B994B
:1035A0009942F4D81500E1E701232A00F6E74246E4
:1035B00006E0561C5B4651462020B8472C003200DE
:1035C000651C0B9BA342F4D89046DBE701330A004D
:1035D0001978002902D0511E002AF7D19B1B8022A6
:1035E000D2004946114088464946114202D0A342C2
:1035F00000D92300022249461140109149460A424F
:1036000008D02A00250099463B004746984626E008
:10361000220044E6A1462A005146B2460E0006E0CA
:10362000551C5B4631002020B84723002A005C1C53
:103630000B999942F4D8150022004C4633005646A7
:103640009A4691462A0025003B004746984606E0E8
:103650001D000136541C5B465146C047220030789D
:10366000002804D0002FF4D06B1E002DF0D11500DF
:103670004B464746109A002A03D1119B0133119300
:103680001DE50B9E2A0006E0551C5B465146202096
:10369000B84723002A005C1C9E42F5D81500ECE7D1
:1036A00021234A461A4313001C9A111D1C911268CB
:1036B0000593082304930394083302930023019392
:1036C00000925B462A0051463800FFF744F8050097
:1036D000119B01331193F2E46C1C5B462A005146A6
:1036E0002520B847119B013311932500E7E46C1C9A
:1036F0005B462A005146B847119B013311932500C0
:10370000DDE40A4FD0E45D450DD35B465A1E5B46AF
:1037100051460020B847280013B0F0BCBB46B24663
:10372000A946A046F0BD2A00F1E7C0466525001075
:1037300010B584B00C0002A902904C60012404482A
:10374000009313006242FFF7A1FC04B010BDC04615
:103750006725001000BEFDE710B5FFF7FBFF000076
:1037600030B583B00D001900002A0BD0074B084C70
:10377000019200932B000200200000F061F901206B
:10378000FFF7E8FF034B1A00F1E7C046186F00107F
:10379000286F0010246F001010B5EFF30583002B85
:1037A00000D000BEFDF7E6FE034C01E008CC9847D0
:1037B000024B9C42FAD310BD0C6900101469001032
:1037C00010B50300080011001B68984710BD0000E9
:1037D000F8B507000D001600437D002B02D0002431
:1037E00000200CE003681100280098472DE03B7D85
:1037F00010E03B68154802219847601C0134B44230
:1038000014DA002CF3DD2B19013B1B780D3B5A42D7
:103810005341DBB22A5D0A2AF0D1002BEED1A0423F
:10382000E7DA3B68211A28189847E2E7B04203DA42
:103830003B68311A28189847002E06DDAD19013D66
:103840002B780D3B5A4253413B75F8BD0081001067
:1038500070B505000368002B16D00C4B1C6805E002
:10386000290004C92000FFF7B3FF2469002C09D008
:103870002368002BF9D0064B1B68002BF0D0A34225
:10388000F3D1EDE700232B6070BDC046A8040020F3
:10389000AC04002070B505000C000B68802B05D02F
:1038A00023685A1C2260E418257170BD0800FFF7D8
:1038B000CFFFF5E710B5FDF71DFC074A00231218EE
:1038C0004B41002B03DB054802F0FAFF10BD01223B
:1038D0005242034BF7E7C04640420F00E40200208B
:1038E000FFFFFF7F10B5024802F0D2FF10BDC046B7
:1038F000E4020020F0B5CE46474680B583B006000E
:103900000D0090461C00FFF7D5FF81466B1C05D0CB
:10391000002C08D0184F194B1C6807E0300002F04B
:1039200085FF0500F4E7164FF5E72469002C17D052
:103930002368002BF9D0134B1B68002B01D0A34246
:10394000F3D12A0031002000B8474346002BECD0C9
:103950006B46D91D0A230B7001222000B847E4E70B
:103960004B46002B05D1280003B0C0BCB946B04679
:10397000F0BDFFF7B7FFF6E7D1370010A80400202D
:10398000C1370010AC0400200A4A136802E01A0094
:1039900010321B69002B09D013688342F7D100292C
:1039A00007D1036913600023036102E0002900D0FE
:1039B00010607047A804002010B5064B1C6800E09A
:1039C0002469002C04D06368002BF9D09847F7E7EE
:1039D00010BDC046A804002010B500F043F9012036
:1039E00010BD70B5050002F021FF04000123012283
:1039F00001002800FFF77EFFFFF7DEFF200070BD0B
:103A0000F0B5A3B004000E00FFF754FF050001AFAE
:103A1000002301930948330022003900FFF788FE94
:103A200004003800FFF714FFFFF7C6FF002D02D196
:103A3000200023B0F0BDFFF755FFF9E795380010DF
:103A40000FB400B583B004A901C90191FFF7D8FFF5
:103A500003B008BC04B0184710B582B00C00144B7A
:103A6000C3185A425341134A5B009B5E8B4204D0F9
:103A70006B46DA1D1470002115E06B46DA1D0D232C
:103A8000137000210029F3D183699B06FCD41378BD
:103A9000036001310132F5E783699B06FCD413789A
:103AA0000360013101320029F6D002B010BDC046DA
:103AB0000080FCBF8409002082B000226B46D91D23
:103AC00006E08369DB06FCD403680B700132013128
:103AD000002AF6D06B46D87902B0704770B5060060
:103AE0000D00002405E0315D034B1868FFF7B4FFBB
:103AF0000134AC42F7DB70BD88090020F8B5060040
:103B00000D00002705E07C1CF719FFF7D5FF387082
:103B10002700AF4204DA0D4A10688269D206F2D556
:103B20000B4A1268002A0AD0084A12685021916391
:103B3000506B18390140074B9C4662441160002FBE
:103B400001D03800F8BD033FFBE7C04688090020DC
:103B5000700400203410000010B5064B1B68002BC9
:103B600006D0054A126800219163044A10689847FC
:103B700010BDC04670040020880900207404002095
:103B8000024B1A6893691B07FCD470478809002010
:103B900070B51D4B1B681D4A934207D014240028A2
:103BA0001ED01B4B1B68002B02D070BD1524F6E7FE
:103BB000174B1860174B196017492000FCF712FDCE
:103BC00001212000FCF7FCFC0F4B1B6850229A637C
:103BD000596B183A0A4011498C4663441A60E4E76D
:103BE0000B4A1268002AE0D000259D6300212000C6
:103BF000FCF7E6FC08492000FCF71EFD044B1D60A5
:103C0000044B1D60D1E7C0468809002000800340B6
:103C10007004002074040020593B00103410000090
:103C200070B50D001C000D4B1860002A0BDA002C3B
:103C30000EDA0A4B18682900FDF7FAFA0848012144
:103C4000FFF7A2FE70BD02211000FCF77FFBEEE73C
:103C500002212000FCF77AFBEBE7C0468809002030
:103C6000C002002010B5074B1B78074B1B78074B91
:103C70001B78E1210123002249020548FFF7D0FF0C
:103C800010BDC04608850010048500100085001096
:103C900000400340704700000000000000000000EA
:103CA0000BA10CC9126892009B581868203080F351
:103CB0000988022080F31488BFF36F8F3FBCAE46A3
:103CC00008BC04BC62B61847C046C046C046C046E1
:103CD000000000D0D804002002E0D0231B069B6D1A
:103CE000D0231B061B6DDB07F7D4D0231B06FF2256
:103CF0001A65024B802252051A60704704ED00E0FD
:103D0000EFF309811AA00CC8106880001B1818680E
:103D100020390160F0C144464D4656465F46F0C129
:103D2000146E556E566F176F3039F0C1106808B5B4
:103D300072B601F001FC62B60CBC11680868103064
:103D4000F0C8A046A946B246BB4680F309880D22BA
:103D500012073038F0C81466556656671767F0C802
:103D60001847C046C046C046C046C046C046C046CA
:103D7000000000D0D804002010B5FCF725FB00009F
:103D800010B5EFF3108472B601F012FD01F0CCFE15
:103D9000002803D0044B802252051A6001F040FD38
:103DA00084F3108810BDC04604ED00E070B5040037
:103DB0000D00FDF79FF9241A8D41200029000A4AC1
:103DC00001235B4280185941002906DC01D0002004
:103DD00070BDFA239B009842F9D3FA229200002387
:103DE000FDF7FEFCF4E7C04618FCFFFF10B5031F0B
:103DF000802464041C60043B1960044B01000C39EE
:103E00000B600300203B1A60403810BD793D001064
:103E100010B5D0231B061A680A4B9200D358002B0A
:103E200008D1094B802252051A60BFF34F8FBFF3B0
:103E30006F8F10BD054B064A6C210648FF31FFF716
:103E40008FFCC0467407002004ED00E0846F001072
:103E500064810010B46F0010D0231B061B68084A51
:103E600099008958002909D09B0000209850054AE4
:103E70009B58BFF35F8F086083F3108862B670476A
:103E8000740700209409022010B5D0231B061B687C
:103E9000984204D0D0231B0600225A6510BD034B64
:103EA000034A88210348FF31FFF75AFC10700010C5
:103EB00058810010B46F001010B5094C0023236026
:103EC000084A13600520FDF765FAFA218900FDF71D
:103ED00061FC0138044B18600723236010BDC04605
:103EE00010E000E018E000E014E000E070B5234BC3
:103EF0001A78D0231B061B689A4212D0204A1168F8
:103F0000FF231B040B4313601E490E2002F0AEFA80
:103F10001D490B2002F0AAFAD0231B06FF221A65C6
:103F20000FE0FFF7C9FF164A1168FF231B060B437A
:103F3000136016490F2002F099FADFE7D0231B0621
:103F40009B6DD0231B061B6DDB07F7D4D0252D06F8
:103F50002C680F34FF212000FCF734FC0C492000B2
:103F6000FCF740FB01212000FCF72AFBFFF798FE3D
:103F7000286801F0E1FAFFF7FFFEC046D8020020F2
:103F800020ED00E0013D0010953C0010813D001047
:103F9000D93C001010B5124B1B78FF2B06D0114BEB
:103FA000114A4C211148FF31FFF7DAFB0E20FCF7D4
:103FB0004FFA0F20FCF74CFA094B00221A70D0235D
:103FC0001B061B68934206D0094B074A5421074839
:103FD000FF31FFF7C5FB074802F0E6FAFFF786FF5F
:103FE000D80200202C70001070810010B46F0010F7
:103FF00048700010F93F001010B5EFF3108372B64F
:10400000FFF774FF10B50A4B1B78FF2B0CD0EFF3B2
:104010000580002805D0D0231B061B684000C0186F
:1040200010BD01F0EDF8FBE7D0231B061868F7E799
:10403000D802002010B582B00C0002681B4B9C46D1
:1040400062449210012393401A021343190A184B39
:104050001B78FF2B20D040BF0368BFF35F8F002287
:104060001A6084F31088EFF30583DBB2002B04D1D0
:10407000104B186800F062F916E0002301930D4B15
:10408000186801AA00F0AAF9019B002B0CD00A4B7A
:10409000802252051A6007E040BF0368BFF35F8FBC
:1040A00000221A6084F3108802B010BD00FFFF2FB9
:1040B000D8020020040A022004ED00E0F0B583B02D
:1040C00006000F0015001C00EFF30583DBB2002B88
:1040D0002ED1344B1B78FF2B30D0D0231B061A680F
:1040E000314B9200D358002B34D128002100FFF728
:1040F0005DFE031E3CD03068002832D0D02212066C
:10410000126829499200505028495750326828496E
:104110008C4662449210012191400A021143090A1F
:10412000244A106800930023012200F077F826E06B
:10413000214B224A22482349FFF712FB0368BFF3B1
:104140005F8F00221A6081F3108828002100FCF79D
:10415000E7FE23E01C4B194AD42119488900FFF7D8
:10416000FFFA1A4B154AD62115488900FFF7F8FACD
:104170003368BFF35F8F00221A6087F31088144BF7
:104180005B6A9C4207D8124A926AAA4208D29C42B1
:1041900001D0012002E0FFF73BFE002003B0F0BD9C
:1041A0000120FBE7D80200207407002094090220B8
:1041B00000FFFF2F040A02205C7000102081001015
:1041C000B46F001046030000846F0010BC70001034
:1041D0000040054010B500F014F8014B186010BD08
:1041E000040A0220002A03D1014206D1100003E094
:1041F0000840884203D0002070470120FCE70120DE
:10420000FAE710B51C2002F03DFA041E03D000238B
:1042100008C000F0EFF8200010BD0000F0B5C64661
:1042200000B506000D001700984600282FD0802307
:104230005B04994232D2002937D001F08BFE00286E
:1042400002D1069B002B37D101F042F93468424677
:1042500029002000FFF7C6FF002834D0002F48D0E7
:104260002300AB4333600023069301F021FD069B3E
:10427000002B08D000283FD001F084FE0400830109
:104280003DD52402240A200080BCB846F0BD254B51
:10429000254AA42125484900FFF762FA244B224A07
:1042A0004A212248FF31FFF75BFA224B1E4AA52123
:1042B0001E484900FFF754FA1F4B1B4A4E211B486A
:1042C000FF31FFF74DFA069B002BCED0002F0DD10A
:1042D00000214346002B02D08023DB0419432943ED
:1042E000301D069A01F0A8F90024BEE78021490498
:1042F000EFE700230693B8E701F046FABCE701F0C8
:1043000057FA3468424629002000FFF76BFF002867
:1043100004D0002F02D02300AB43336001F080FAB9
:10432000AFE7C046D070001098810010DC7000101C
:10433000207100104871001060710010F8B5040081
:104340000D0000280DD080235B0499420FD2060097
:104350000C3601F0BDF8206923682B432360002749
:1043600018E0174B174A18481849FFF7F9F9184B86
:10437000144A882114488900FFF7F2F9216819408E
:10438000994206D111E0236880218904194301F084
:104390003BFD2800B0420CD04568026813021B0A9E
:1043A0005101EBD421680B42F3D0D201EBD51F436E
:1043B000E9E72368BB43236001F07AFC2068F8BD7D
:1043C000D070001084810010DC7000101F0200000B
:1043D000B471001010B5FFF7B1FF10BD10B5130098
:1043E000034C0A000100200002F006F810BDC04690
:1043F000D54300100300083343600122524282601B
:10440000C3600361002303607047002303617047AA
:1044100043684B609A688A605160996008610368DC
:1044200001330360704730B50D686B1C10D003007A
:1044300008331C005B681A68AA42FAD963684B60AB
:1044400099608C606160086103680133036030BD6E
:104450000469F3E70369416882688A6041685160D2
:104460005A68824206D0002202611A68013A1A6034
:104470001868704782685A60F5E710B5040001F0CB
:1044800097F9A26BE36B9A4204D0002401F0C8F9BB
:10449000200010BD0124F9E710B5040001F088F9EF
:1044A000A36B002B04D1012401F0BAF9200010BD48
:1044B0000024F9E770B504001500866B026C002A31
:1044C0000CD10368002B03D000200136A66370BD19
:1044D000806801F00BF90023A360F6E7002D0DD1F1
:1044E0004068FEF739F86368226C9B186360A26825
:1044F00093421AD3236863602800E6E7C068FEF79A
:104500002BF8E368226C51429B1AE36022689342C5
:1045100002D2A3685B18E360022D01D00020D4E72B
:10452000002E04D0013E0020CFE72800CDE7002078
:10453000CBE7000070B582B00190846C002C0AD0EB
:10454000A26BE36B9A420CD2A26B93420FD8002568
:10455000280002B070BD174B174A18481849FFF7DA
:10456000FFF8184B144A15481749FFF7F9F8452387
:10457000E65C76B2002201A92000FFF79BFF050050
:10458000731C06D07F2E0FD0013676B24523E65439
:10459000DEE7636A002BDBD02000243000F082FECF
:1045A0000028D5D00125D3E7084B034A0348084922
:1045B000FFF7D6F8D8710010EC810010EC710010F4
:1045C000A80B00002C720010A90B000074720010E0
:1045D000C90B000010B5030008001A6C002A0AD0AD
:1045E000DC68A418DC6099688C4201D31968D96032
:1045F000D968FDF7B1FF10BD70B5050001F0D8F81E
:104600004523EC5C64B20AE06B6A002B17D02800EB
:10461000243000F047FE00280ED1013C64B2002C8B
:104620000DDDAB6C002BEFD02800FFF783FF0028D7
:10463000F3D000F0DBFDF0E700F0D8FDEDE7452317
:10464000FF22EA5401F0ECF801F0B2F84423EC5CEC
:1046500064B201E0013C64B2002C0BDD2B69002B3D
:1046600008D02800103000F01DFE0028F2D000F025
:10467000BDFDEFE74423FF22EA5401F0D1F870BDFD
:1046800070B504000D0000281DD001F091F82268DB
:10469000E36B206C010059435118A1600021A16314
:1046A0006260013B4343D218E260FF234422A354DB
:1046B0000132A354002D16D12369002B0AD101F039
:1046C000AFF8012070BD0C4B0C4A0E210C48FF3195
:1046D000FFF746F82000103000F0E4FD0028EED08F
:1046E00001F052F8EBE720001030FFF783FE2000C6
:1046F0002430FFF77FFEE2E7947200103082001052
:10470000EC71001070B51D00049C00290BD12460D1
:10471000E063216401212000FFF7B2FF5023E5543C
:104720000023A36470BD2260F2E70000F0B583B0FF
:1047300005000F00160000281CD00C00444300297F
:1047400004D02000FDF726F8A8421AD123005533E3
:104750001ED82000543001F095FF041E07D002003F
:1047600054320090330039002800FFF7CBFF2000BF
:1047700003B0F0BD0A4B0B4AC4210B484900FEF7B9
:10478000EFFF0A4B074AC82107484900FEF7E8FF38
:10479000074B044A94210448FF31FEF7E1FFC0466D
:1047A0009C7200101C820010EC710010C07200108E
:1047B00010730010F0B585B004000F0001921E00C8
:1047C000002813D0002918D0022E02D1E36B012B50
:1047D0001CD101F0BFFB051E1ED1019B002B5CD03C
:1047E0004E4B4F4A4F485049FEF7BAFF4F4B4C4A89
:1047F000C4214C488900FEF7B3FF036C002BE3D0C3
:104800004B4B474A47484B49FEF7AAFF4A4B444A9D
:1048100044484A49FEF7A4FF00253EE0A56B32005C
:1048200039002000FFF746FEA36C002B10D0022EAB
:1048300001D1002D04D12000FFF77CFE002804D117
:1048400000F0EEFF012005B0F0BD00F09DFFF7E79E
:10485000636A002B04D10028F2D000F095FFEFE747
:104860002000243000F01EFD0028E9D000F08CFF6D
:10487000E6E700F0D5FF0020E5E702A800F0AAFC7B
:10488000013517E00022E2541FE00022E25421E04B
:104890002000FFF7B1FE01F00BFA00F089FFA26BD8
:1048A000E36B9A42BAD3022EB8D0019B002BE0D022
:1048B000002DE2D000F0B4FF00F00AFE00F078FF17
:1048C0004423E25C52B20132DCD04523E25C52B2B6
:1048D0000132DAD000F0A4FF01A902A801F0DEFA4B
:1048E000002813D12000FFF7C8FD0028D0D001997F
:1048F0002000103000F080FE2000FFF77DFE01F068
:10490000D7F90028C9D100F03FFFC6E72000FFF724
:1049100073FE01F0CDF9002095E7C04660710010EC
:1049200008820010EC710010150300009472001052
:104930005073001011030000A87300101203000050
:10494000F0B5CE46474680B583B004000F00019213
:104950001D0000281CD0002921D0022D02D1E36BBC
:10496000012B25D1EFF3108872B600F021FFA26B66
:10497000E36B9A4222D3022D20D0002400F050FF96
:1049800088F31088200003B0C0BCB946B046F0BD23
:104990002F4B304AF92130488900FEF7E1FE036CC5
:1049A000002BDAD02D4B2B4A2B482D49FEF7D8FE91
:1049B0002C4B284A28482C49FEF7D2FE4523E65CBA
:1049C00076B2A36B99462A0039002000FFF772FDEA
:1049D000731C07D07F2E2BD0013676B24523E654C8
:1049E0000124CBE7A36C002B10D0022D02D14B4643
:1049F000002B23D12000FFF79DFD002820D0019A35
:104A0000002A1FD0012313600124B7E7636A002B3B
:104A100001D10124B2E72000243000F043FC00283B
:104A200012D0019A002A11D0012313600124A5E7B6
:104A30000E4B084A08480E49FEF792FE01249DE7F6
:104A400001249BE7012499E7012497E7012495E7D6
:104A500094720010D0810010EC710010507300109F
:104A6000E5030000A8730010E60300007472001054
:104A70006F040000F0B585B004000E00019200281C
:104A80000ED0002912D001F065FA051E17D1019B46
:104A9000002B4ED0434B444A44484549FEF760FE44
:104AA000444B414A41484449FEF75AFE036C002BEF
:104AB000E9D0424B3C4A3D484149FEF751FE0025B2
:104AC00037E031002000FFF785FD013FA763236930
:104AD000002B04D100F0A4FE012005B0F0BD2000A1
:104AE000103000F0DFFB0028F4D000F04DFEF1E7BD
:104AF00000F096FE0020F0E702A800F06BFB013505
:104B000021E044230022E25428E045230022E2541D
:104B100029E02000FFF770FD01F0CAF809E020004D
:104B2000FFF76AFD01F0C4F82000FFF7B5FC00288C
:104B300035D100F03DFEA76B002FC2D1019B002BA9
:104B4000D6D0002DD8D000F06BFE00F0C1FC00F0F4
:104B50002FFE4423E35C5BB20133D2D04523E35CF8
:104B60005BB20133D1D000F05BFE01A902A801F0D5
:104B700095F90028D3D12000FFF78EFC0028C8D07B
:104B800001992000243000F037FD2000FFF734FDAC
:104B900001F08EF80028CCD100F0F6FDC9E7002026
:104BA0009BE7C04660710010C0810010EC710010DE
:104BB0003C050000F8730010330500000474001079
:104BC0003705000010B500280BD000290FD00023B6
:104BD000072B16D80B4ADC00A258002A0DD001334F
:104BE000F6E7094B094A0A480A49FEF7B9FD0A4B9C
:104BF000064A07480949FEF7B3FD024AA1501219B7
:104C0000506010BD440A022060740010AC81001096
:104C1000EC710010AA0A000068740010AB0A0000D2
:104C200070B504000D00160000F0C2FD4423E35CE3
:104C30005BB201330DD04523E35C5BB201330CD092
:104C400000F0EEFDA36B002B0BD02000FFF7D4FC8F
:104C500070BD44230022E254EDE745230022E254D4
:104C6000EEE7200024303200290000F01BFDECE7C5
:104C7000EFF3108172B6D0231B061A68024B920024
:104C8000D05881F310887047C40A0220084B1B6873
:104C90001B68002B04D1074B012252421A60704757
:104CA000034B1B68DB681A68024B1A60F7E7C046C3
:104CB000E40400201C0A022010B50400406B01F03F
:104CC00075FD200001F072FD10BD0000F8B5DE4654
:104CD0004F4680B507000E0014009B460A9D686B86
:104CE0009200A521FDF732FC6B6B324A9446644476
:104CF000A4001B19072293439946002E50D000248C
:104D00000F2C07D8325D2B1940331A70002A01D0BE
:104D10000134F5E74F230022EA54089B1F2B01D9E9
:104D20001F230893089B2B63EB6500242C66280047
:104D30000830FFF76AFB28001C30FFF766FB6D6147
:104D40002023089A9B1AEB61AD622C652800643021
:104D500014220021FDF7FAFB2800783004220021FC
:104D6000FDF7F4FB2B007C331C707D23EC54013CDD
:104D70006C605A4639004846FFF738F82860AC6343
:104D80000D4B9F4210D00D4B9F4210D00023EB6380
:104D9000099B002B00D01D60C0BCBB46B146F8BDCE
:104DA00040230022EA54B8E70123EB63F0E7012334
:104DB000EB63EDE7FFFFFF3F05590010C14D001009
:104DC00010B5FFF725F8034B1B68022BFBD9FFF743
:104DD0001FF8F8E7F404002070B5002407E0A300F2
:104DE0001B1998000E4BC018FFF704FB01341F2C51
:104DF000F5D90C4D2800FFF7FDFA0B4C2000FFF70A
:104E0000F9FA0A48FFF7F6FA0948FFF7F3FA0948F2
:104E1000FFF7F0FA084B1D60084B1C6070BDC046E0
:104E2000F4040020DC090220F0090220300A0220EC
:104E3000A40A0220900A0220E4040020EC040020CE
:104E400010B50400EFF30583DBB2002B04D0D023B0
:104E50001B061B6898420FD00F4BA200D3589B6BC8
:104E6000023308D0D0231B061B689C4209D10B4B90
:104E700014000122E25010BD084B84000122E250D0
:104E8000F9E72000FFF700F8034BA400E3580222E3
:104E900052429A63EFE7C046D8040020C40A0220B9
:104EA00070B5012819D8D0231B061C680123834044
:104EB000FF2B18D8002A38D00A68002A19D0BFF36F
:104EC0005F8F2B4A125C002A29D1294A01211154F3
:104ED00028490A5D13430B5570BD274B274A2848C4
:104EE000B221FEF73DFC274B244A2548B521FEF7A9
:104EF00037FC204A125D13420DD01D4B1B5CFF2B6B
:104F000003D01B4A01331354E6E71F4B1B4A1C48CE
:104F1000BC21FEF725FC0A68002AD0D1FBE71B4B19
:104F2000164A1748C321FEF71BFC124A155D2B4297
:104F300011D00F4A125C002A13D0013AD2B20C4EA3
:104F40003254002AC8D10B4A9D431555BFF35F8FD9
:104F500001230B60C0E70E4B084A0948C721FEF742
:104F6000FFFB0C4B054A0648C821FEF7F9FBC0467B
:104F7000900902208C090220BC7400109483001058
:104F8000DC74001044750010587500108475001012
:104F9000AC750010D8750010F8B5DE4657464E4681
:104FA0004546E0B505007A4B1B689846794B1B686F
:104FB0009B46012B04D1190000239A46002664E089
:104FC000754B764AD12176488900FEF7C9FB4346E6
:104FD0009900CA1892007348914681444B465A681A
:104FE00094684144890008310918A14201D0200089
:104FF0000CE0A0680AE064680BE05F680122AA4048
:105000003A421DD1002E2DD1A0424FD06468A1425A
:10501000F1D0E3689A6B0132EFD0634AAF00BA581F
:105020009A42EFD19A6BAA4202D09A6B023213D104
:105030005F680122AA403A42E4D09D635F4612E0D5
:10504000594AA900885801277F42876388588246B9
:105050009D638B505F4606E0544B504A504854497C
:10506000FEF77EFB37002000FFF7F4F921004846E9
:10507000FFF7CEF931003E004346002B01D1012E4F
:1050800016D101235B429C46E044002E17D1454ACD
:1050900043469B0043449B009B58002B97D100291B
:1050A000EAD03B4A1368013B1360E5E73100E3E7D0
:1050B000404B3A4AEF213A488900FEF751FB3A4B00
:1050C000AA00D3589B6B002B16DB374BD3589B6B36
:1050D000012B11DC5346002B08D09A691E6BB300DC
:1050E0009B199B002F495B189A420CD0F0BCBB4621
:1050F000B246A946A046F8BD2F4B284AF0212848C1
:105100008900FEF72DFB53465B685246D26BB61AF8
:105110000122AA40134204D0234AAD00AA58526883
:10512000934303241C4001256D42002C2AD020000B
:10513000FCF702FB1F23181A01281DD80123834006
:105140009C43194B8200D158096BD358DB6BCB1AA7
:105150009E42EADD144A81008A58926B002AE4DB01
:10516000114A8A58926B012ADFDC144A8A58002AB5
:10517000DBD105001E00D8E7114B084A0848114949
:10518000FEF7EEFA012DB1D82800FFF759FEADE782
:10519000AC090220840A022000760010208300104F
:1051A0007C740010F4040020D80400202C76001039
:1051B0009503000088760010E8760010C40A0220EB
:1051C00050770010F2030000014B18687047C0468A
:1051D000B80A0220034B1B680360034B1B68436043
:1051E0007047C046200A0220B80A0220D0231B06BE
:1051F0001A68024B92000121D1507047C40A022064
:10520000EFF3108172B6D0231B061A68024B92008E
:10521000D05881F310887047D8040020F8B50400F6
:105220000D00FFF7EDFF036D002B07D0276B002D5E
:1052300000D1013F00220120404206E0134B144AF6
:1052400014481549FEF78CFA0132012A18DC134B79
:105250009100CD582E6BCD58ED6B761BCB589B6BC8
:10526000012BF1D80E4BCB58002BEDD1B742EBDB25
:105270006168013393400B42E6D010003700E3E74A
:10528000012800D9F8BDFFF7DBFDFBE78C770010A4
:10529000C88300107C740010DA020000D8040020DB
:1052A000C40A022070B5C368DC68002C29D0250030
:1052B0001C352800FFF7CEF8174B1B68002B26D1B2
:1052C000143D2800FFF7C6F8236B144A1268934276
:1052D00001D9124A13609800C0188000104BC01802
:1052E0002900FFF795F800212000FFF797FFD02352
:1052F0001B061A680B4B9200D058002800D00120E2
:1053000070BD094B094A0A480A49FEF729FA0A48BA
:105310002900FFF77DF8E6E7A4090220AC09022086
:10532000F4040020C40A0220C0770010AC820010F0
:105330007C740010CC0F0000300A022070B505000C
:105340000C001C4B1E68FFF75BFF7D230022C2543C
:10535000FFF756FF0830FFF77DF86B1C01D1002CDA
:105360000FD17419FFF74CFF8460A64212D9124B7B
:105370001C68FFF745FF010008312000FFF753F8D4
:1053800070BDFFF73DFF010008310C4B1800FFF71F
:105390003FF8F5E70A4B1D68FFF732FF01000831BF
:1053A0002800FFF740F8074B1B68A342E8D9054BDC
:1053B0001C60E5E7B80A0220EC040020900A0220F5
:1053C000E40400201C0A022070B5EFF30583DBB271
:1053D000002B62D1D0231B061A68304B9200D5589F
:1053E00026E02F4B2F4A30483049FEF7B9F900220A
:1053F0002F490120FFF754FDAB6B023332D1FEF78A
:105400002BFDAB6B023334D0EFF3108372B6012265
:1054100027490120FFF744FD012226490020FFF71C
:105420003FFDFFF7EDFE0465234B1E60002C26D0E8
:10543000AB6B023331D12C6D1F4B1E68A319012BAE
:10544000CFD11D4B00221A60002CD0D000232B6539
:1054500018490020FFF724FD002215490120FFF71D
:105460001FFDC9E7154B0F4AA6210F488900FEF71B
:1054700077F9134B0B4A0C481249FEF771F9002ECD
:1054800005D000220B490020FFF70AFDD0E70E4BA4
:10549000044A05480D49FEF763F970BDD8040020A1
:1054A000D0770010788300107C7400108702000011
:1054B0003C0100D0380100D0A40902200878001077
:1054C000407800109F02000078780010AA020000C7
:1054D00070B5154B1B68002B00D170BDEFF3108623
:1054E00072B6012211490120FFF7DAFC104D0122AA
:1054F00029000020FFF7D4FC0E4C23680133236001
:10550000002229000020FFF7CBFC2368012B02D0EA
:1055100086F31088E1E7FFF773FE036D002BF7D1E8
:10552000FFF752FFF4E7C046840A02203C0100D096
:10553000380100D0A409022070B5040001222549D9
:105540000120FFF7ADFC012223490020FFF7A8FC52
:10555000FFF756FE036D002B12D1204B1B68002B6A
:1055600014D01F4BA4000122E25000221A4900204F
:10557000FFF796FC002217490120FFF791FC70BD50
:10558000184B194A19481A49FEF7EAF8144BA200B9
:105590000021D150FFF734FE436B1968154A914240
:1055A00002D1596891420DD0FFF72AFE0500FFF79E
:1055B00027FE010040312800FAF7C6FE2000FFF761
:1055C000EBFCD2E799689142EED1DA68094B9A4236
:1055D000EAD1F3E73C0100D0380100D0A409022051
:1055E000C40A0220BC780010408300107C740010B4
:1055F000180F0000A5A5A5A570B504000D00002892
:105600000BD0FFF7FDFD01001C312000FEF70BFF62
:1056100001212800FFF792FE70BD034B034A0448A6
:105620000449FEF79DF8C046F0780010088300108A
:105630007C7400106D0F000070B504000D001600A2
:10564000002815D0114B1B68002B18D0FFF7D8FD90
:1056500080231B062B43C361FFF7D2FD01001C31E1
:105660002000FEF7D5FE01213000FFF767FE70BD78
:10567000074B084AF82108480901FEF771F8074B63
:10568000044A05480649FEF76BF8C046A409022003
:10569000F0780010E88200107C740010FC78001094
:1056A000840F000070B504000E00150000280FD014
:1056B000FFF7A6FD01001C312000FEF7A9FE002D1A
:1056C00001D00126764229003000FFF737FE70BD79
:1056D000024B034A03480449FEF742F8F0780010F1
:1056E000C88200107C7400109C0F000070B5041E6E
:1056F00036D0FFF785FD84420CD1236E002B0FD0EE
:10570000013B2366216BE26D91422BD0002B0DD023
:10571000002026E0144B154A15481649FEF720F8DC
:10572000154B124A12481549FEF71AF8250008359C
:105730002800FEF78FFEE36D23632022D21AE26178
:105740000F4A1268934201D90D4A13609800C0189D
:1057500080000C4BC0182900FEF75AFE012000E023
:10576000002070BD0020FCE718790010588200105E
:105770007C74001012140000407900101314000013
:10578000AC090220F404002010B5FFF739FD036DC9
:10579000002B07D0D0231B061A68044B920001216E
:1057A000D15010BDFEF734FBFBE7C046C40A02200F
:1057B00010B5EFF3108372B6154B1B68002B00D1A8
:1057C00010BDFFF71DFD036D002B09D1EFF305831D
:1057D000DBB2002B15D001220E490020FFF760FB41
:1057E000FFF70EFD036D013303650B4B1B68002BA8
:1057F000E6D1FFF705FD036D012BE1D1FFF7E4FDD5
:10580000DEE7012205490120FFF74AFBE3E7C04636
:10581000840A0220380100D0A40902203C0100D0F3
:1058200010B51C4B1B68002B00D110BDFFF7E8FC26
:10583000036D002B26D0FFF7E3FC036D002BF4D0A3
:10584000FFF7DEFC036D013B0365FFF7D9FC036D39
:10585000002BEAD1002210490020FFF721FBEFF3D3
:105860000583DBB2002BE0D100220C490120FFF7B9
:1058700017FBFEF7F1FAFFF7FBF90028D5D0FEF78A
:10588000C7FAD2E7064B074AA82107484901FDF7A6
:1058900067FFC046840A0220380100D03C0100D0D6
:1058A0008C770010448200107C74001010B510E05A
:1058B00020000830FEF7CEFD0F4A1368013B13604D
:1058C0000E4A1368013B13602000FFF7F5F9FFF75C
:1058D000A7FF0A4B1B68002B0DD0FFF769FF074B92
:1058E0001B68002BF3D0064BDB68DC68A36B01332D
:1058F000DED0FFF795FF10BD9C090220A009022011
:10590000A40A022010B5FEF783FAFFF7CFFF034B7E
:105910001B68022BF9D9FEF77BFAF6E7F4040020A6
:1059200070B50400FFF744FF1F4A1368013313608A
:105930001E4B1D68002D05D11368012B1ED0E36B93
:10594000002B22D11A4A1368013313606365226B5E
:10595000184B1B689A4201D9164B1A602100083176
:1059600093009B189B0014481818FEF751FD0F4B2D
:105970001B68002B12D1FFF753FF70BDFFF72CFA05
:10598000DDE7A5630D4BD450DCE7012DDAD80B4BD6
:10599000AA00D358002BF4D00135F6E700212000EF
:1059A000FFF73CFCE7E7C0469C090220840A02207E
:1059B000A8090220AC090220F4040020D804002029
:1059C000F0B587B00490059116001F00900000F01C
:1059D00059FE041E1FD0802000F054FE051E14D076
:1059E00044630023039302900E9B01930C9B00934E
:1059F0003B00320005990498FFF768F90D9B6B6036
:105A00002800FFF78DFF012007E0200000F0CEFE08
:105A10000120404201E00120404207B0F0BD10B536
:105A200084B0079C0294012464420194069C009473
:105A3000FFF7C6FF04B010BD10B586B000240120EA
:105A400019E00F2B08DC591C2200303202A8C25486
:105A50000F2901DC00224254002C1BD08022154863
:105A6000A30015495B18019300230093520002A97B
:105A7000FFF7D5FF0134012C19DC002817D00023D3
:105A80000F2BDEDC0D4AD25C02A9CA54002AD8D002
:105A90000133F5E780220A48A30007495B18019308
:105AA00000230093520002A9FFF7B9FFE2E706B016
:105AB00010BDC046C14D00100C0A022058790010DC
:105AC0000559001010B500F0D1FAFFF7B5FF012815
:105AD00004D0013012D00C4B1B6810BDEFF31083C3
